:020000040800F2
:100000002008002035020008573A00080936000889
:10001000553A00088B2200089D3F000800000000B0
:10002000000000000000000000000000CB3B0008C2
:100030008D22000800000000C93B0008CD3B0008ED
:100040004F0200084F0200084F0200084F0200084C
:100050004F0200084F0200084F0200084F0200083C
:100060004F0200084F0200084F0200084F0200082C
:100070004F0200084F0200084F0200084F0200081C
:100080004F0200084F0200084F0200084F0200080C
:100090004F0200084F0200084F0200088F2200089C
:1000A0004F0200084F0200084F0200084F020008EC
:1000B0004F0200084F0200084F0200084F020008DC
:1000C0004F0200084F0200084F0200084F020008CC
:1000D0004F020008613F00084F0200084F0200086D
:1000E0004F0200084F0200084F02000800F002F81B
:1000F00000F090F80AA090E8000C82448344AAF132
:100100000107DA4501D100F085F8AFF2090EBAE82F
:100110000F0013F0010F18BFFB1A43F0010318473B
:10012000204B0000404B0000103A24BF78C878C133
:10013000FAD8520724BF30C830C144BF04680C60ED
:10014000704700000023002400250026103A28BF35
:1001500078C1FBD8520728BF30C148BF0B60704739
:100160006E2900F01284702900F07385662904F06E
:10017000C380652904F0C080672904F0BD8061292F
:1001800004F0BC8003681B0A28BF41F08001692984
:1001900000F0CA80642900F0C780752900F0C4808F
:1001A0006F2900F00085782900F03F85E92900F0EB
:1001B0009B84E42900F09884F52900F09584EF29C8
:1001C00000F0FD84F82900F03E850368DB0928BFB4
:1001D00041F08001632900F01C84732900F0218420
:1001E000E32901F06B81F32901F070810020704751
:1001F0001FB501F077FB04000020002104F066F831
:10020000401C60600020002104F04AF8E0601FBD3F
:1002100010B510BD01F038FB1146FFF7E9FF03F000
:10022000A3FF01F015FC03B4FFF7F2FF03BC01F0DC
:100230005DFC00000948804709480047FEE7FEE7EB
:10024000FEE7FEE7FEE7FEE7FEE7FEE7FEE7FEE786
:1002500004480549054A064B704700002F3C00083A
:10026000ED000008200200202008002020040020CB
:10027000200400207CB51D4616460C00009001D0DD
:100280002044401E074B7B442A4669460190304675
:1002900000F095FB05461CB10020694600F0A2FB6A
:1002A00028467CBD650700000FB41CB5084B06AAA4
:1002B0007B4469460090059800F081FB04460020CD
:1002C000694600F08FFB20461CBC5DF814FB000063
:1002D0003107000070B50C460546012A05D0287884
:1002E000800600D5EA69002302E0012305E05B1CDB
:1002F000934202D2E05C0028F9D1A869E618C01A3E
:10030000A861286A18442862284600F0ACFA04E084
:10031000D5E9012114F8010B9047B442F8D32846DF
:1003200000F0B7FA70BD00002DE9F0410646002448
:1003300010687529314616A510D000F0BBFA0028C8
:1003400002DA404213A507E031688A0701D512A5F9
:1003500002E0490704D511A5012401E000F0B3FA39
:1003600000210A2206F1240709E0B0FBF2FCB0FBF1
:10037000F2F302FB1C00303078541846491C002868
:10038000F3D123462A463046BDE8F04100F0A4BA36
:10039000000000002D0000002B00000020000000E5
:1003A0002DE9F05F894604464FF0000ADFF874B18A
:1003B000FB44C0F820A02046E1688847002874D09C
:1003C000252806D0D4E901219047206A401C2062EC
:1003D000F1E700265F462046E16888472028054669
:1003E00007DB312D05D2781910F8200C08B106432F
:1003F000F1E7B00701D526F00406C4F81CA00027D9
:10040000C4F818A02A2D09D0284603F007FE38B3F7
:1004100004EB8708303DC8F8185019E059F8041B60
:10042000204604EB87029161E1688847012F054669
:1004300018D1E069002820DA26F020061DE0D8F85F
:10044000180000EB800005EB40003038C8F81800B9
:100450002046E1688847054603F0E0FD0028EED11C
:10046000012F0AD02E2D08D12046E16888477F1C35
:100470000546022F46F02006C4DBA069002803DAF7
:10048000404246F00106A061F00701D026F01006B8
:100490006C2D0BD0682D09D04C2D39D06A2D35D05C
:1004A000742D35D07A2D33D016E038E0E1682F4630
:1004B00020468847B842054609D16C2F26D04FF414
:1004C0008060E168064320468847054604E06C2FBB
:1004D0001AD04FF4807006430DB3A5F141001928DE
:1004E00002D8203546F400664A4629462046266052
:1004F0004E46FFF735FE80B101280BD0F61D26F0E1
:10050000070000F1080956E74020E4E78020D8E71B
:100510000020D6E706F104094DE7284652E7206A95
:10052000BDE8F09F8E4700000FB400B58DB010A954
:10053000099000910B904FF0FF300A9000200C9032
:10054000064878440690064878446A4607900F9912
:1005500009A800F09DFB0DB05DF814FB6B070000CF
:10056000830700002DE9FF5F1D464FF0FF3B9146DA
:100570004FF000085F46D5E90146A96901987F1C44
:100580008847296A824688470028F6D1BAF1FF3F9A
:100590000CD0002E24F4C06419DD600614D5BAF125
:1005A0002B0F09D0BAF12D0F0ED103E0584604B03D
:1005B000BDE8F09F44F48064A96901987F1C8847D6
:1005C000761E8246002E02DDBAF1300F03D0B9F15B
:1005D000000F26D032E0A969761E01987F1C44F4F2
:1005E00000748847002E824605DDBAF1780F06D0E8
:1005F000BAF1580F03D0B9F1000F10D01EE0B9F1D5
:10060000000F02D0B9F1100F18D1A969761E019818
:100610007F1C24F4007488478246102002E00820E2
:1006200000E00A20814609E0A96908FB0908761E56
:1006300001987F1C44F4007488478246002E05DD33
:100640004946504600F010FB0028EDDAE9690198B0
:100650008847A00502D46FF00100A8E7E00725D184
:10066000600613D5600502D5C8F1000000E04046E1
:1006700029680A1D2A600968220501D5087015E05D
:10068000220701D5088011E008600FE02868011DED
:1006900029600068210502D580F8008006E0210766
:1006A00002D5A0F8008001E0C0F8008038467EE75F
:1006B0002DE9FF5F4FF000089946144646469169C0
:1006C000D2E901A7DDF838B001988847054659EA14
:1006D0000B0005D009E0A1690198761C8847054602
:1006E000216A284688470028F5D1681C03D05FEAB4
:1006F000CA7005D015E04FF0FF3004B0BDE8F09FA0
:100700002068011D2160D0F800800AE05FEACA700D
:1007100001D108F8015BA169761C01987F1E88470A
:100720000546002F1ADD681C18D0B9F1000F0DD056
:10073000E81705EBD060421120F01F0059F8221095
:100740002A1A012090400142E0D107E0BBF1000FDE
:10075000DCD12846216A88470028D7D0E169019872
:100760008847BBF1000F07D1002E05DD5FEACA7094
:1007700002D1002188F80010A068B84203DDBBF167
:10078000000F03D017B16FF00100B6E73046B4E7B1
:1007900010B5431C02E010F8011B71B18107FAD1BA
:1007A0004FF0013202C88C1A8C4314EAC211F9D0FE
:1007B000C01A0A0603D0C01E10BDC01A10BD0A041C
:1007C00001D0801E10BD0902FCD0401E10BD4FF0AC
:1007D00000020429C0F0128010F0030C00F01B800E
:1007E000CCF1040CBCF1020F18BF00F8012BA8BF1C
:1007F00020F8022BA1EB0C0100F00DB85FEAC17CE0
:1008000024BF00F8012B00F8012B48BF00F8012B92
:1008100070474FF0000200B51346944696462039C3
:1008200022BFA0E80C50A0E80C50B1F12001BFF4A9
:10083000F7AF090728BFA0E80C5048BF0CC05DF80F
:1008400004EB890028BF40F8042B08BF704748BF5D
:1008500020F8022B11F0804F18BF00F8012B7047D1
:1008600070477047704770B5044685690068C106D7
:1008700001D5302600E02026C00707D070BDD4E99E
:10088000012130469047206A401C20626D1EF6D53B
:1008900070BD70B5044685690078C00707D170BD8A
:1008A000D4E9012120209047206A401C20626D1E5F
:1008B000F6D570BD09684A0501D540B27047C90533
:1008C000FCD500B2704709684A0501D5C0B270472F
:1008D000C905FCD580B270472DE9F0470D46994611
:1008E0009246044600F124080168880604D5E069B0
:1008F00021F01001216000E00120A84201DD471B2A
:1009000000E00027A1697A1902EB0900081AA0612A
:100910002078C00602D42046FFF7A5FF002608E095
:10092000D4E901211AF806009047206A401C761C81
:1009300020624E45F4DB2078C0060AD52046FFF73A
:1009400092FF06E0D4E9012130209047206A401C44
:100950002062381EA7F10107F4DC07E0D4E9012189
:1009600018F805009047206A401C2062281EA5F157
:100970000105F3DC2046FFF78CFF2078000602D546
:100980000220BDE8F0870120FBE711680268006AD9
:10099000530501D508700AE0D30501D5088006E0AB
:1009A000130603D5C217C1E9000200E00860012068
:1009B0007047000001694A1C02610878704700B561
:1009C0008FB0CDE901310021059105497944CDE988
:1009D000031011466846FFF7E3FC0FB000BD0000AE
:1009E000E5FFFFFF0A6802F8010B0A607047D1E9D2
:1009F00000239A4202D2531C0B601070704710B54E
:100A0000436913B1AFF3008001E0FFF763FC0120FD
:100A100010BD127800F124010A7000224A700122F0
:100A2000EDE711684FF0FF32E9E700002DE9FF5FC5
:100A300015468A460446DFF8AC80F8440027D8E91A
:100A400000103E46CDE9001010E03AF816106A4654
:100A500002A800F0F9FE411C07D02178890603D5D1
:100A6000E269391891420DD80744761C2078800637
:100A700002D5E069B84205DDAE42E6DB3AF8160081
:100A80000028E2D1A069C01BA0612046FFF7EBFE61
:100A9000D8E90010CDE90010002017E03AF818104E
:100AA0006A4602A800F0D0FEB0F1FF3F81460BD0AD
:100AB00000250DF1080B05E0D4E901211BF8050024
:100AC00090476D1C4D45F7D308F10100B0428046B8
:100AD000E4DB206A384420622046FFF7DAFEBDE8F6
:100AE000FF9F0000164100002DE9F0418046D21D15
:100AF00022F007020025D2E90002F52915A614D03C
:100B0000011E72F1000106DA0023D0EB030063EB53
:100B1000020211A608E0D8F800108B0701D50FA635
:100B200002E0490701D50EA601251146002408F16F
:100B3000240704E000F0DCF830323A55641C50EA37
:100B40000102F7D12B46324621464046BDE8F0412E
:100B5000FFF7C2BE000000002D0000002B000000C7
:100B60002000000030B4002100F1240408E002F06D
:100B70000705D208303542EA4372DB086554491C48
:100B800052EA0305F3D10468002310A2250707D514
:100B9000A40600D421B1C46901230DA2641EC4615E
:100BA00030BCFFF799BE10B5044621461068FFF728
:100BB0008AFE02462046BDE810400023D2E7D21D3F
:100BC00022F00701D1E90023CCE70000000000007B
:100BD00030000000F0B40D460188090502D5214C13
:100BE0007C4402E01F4C7C440E34002100F12406BA
:100BF00008E002F00F071209E75D42EA03721B09E1
:100C00007754491C52EA0307F3D1027800231207F4
:100C100004D5702D06D009B1022311342246F0BC50
:100C2000FFF75ABE01231034F8E770B504460D46AD
:100C300021461068FFF747FE024629462046BDE8D8
:100C400070400023C6E7D21D22F00703D3E900233A
:100C5000C0E70368126843F0200303600823C36100
:100C60000023B7E7783F00003A2800D2303820F060
:100C70002002412A01D3A2F13700884201D34FF06C
:100C8000FF307047026811441378016018467047BE
:100C9000D1600549794451610449794411620021C8
:100CA0001161114600F016BCEDFFFFFFDD000000F2
:100CB000426842B1016811F8013B23B1521EC0E9FC
:100CC0000012184670470121C160881E70474268B3
:100CD0005AB1C368016843B983688B4205D0491E85
:100CE000521CC0E90012002070474FF0FF307047DF
:100CF00030B5B0F10A024FEA900E71F100034EEAEE
:100D0000817EB0EB0E0061EB91014FEA101E4EEABE
:100D1000017E10EB0E0041EB11114FEA102E4EEA4E
:100D2000016E10EB0E0041EB11214FEA104E4EEA1E
:100D3000014E10EB0E0041EB1141401841F1000152
:100D40004FEAD00040EA41704FEAD10110EB800534
:100D50004FEA810444EA907444EB01046D1944EBBA
:100D60000404521BA3414FF0000348BF0A3200D5D0
:100D700030BD401C41F1000130BD10B5044600F00B
:100D8000A9FD0068005D00F0010010BD70472DE96D
:100D9000FF4F0C461E464FF0FF378BB0D2E90001E3
:100DA000DDF860800A908A46C1F30A5505B93D46D0
:100DB000002108464FF00000BAF1000F00F4400097
:100DC00005DA00EB80004FF4400101EA50004FEAE1
:100DD0009059B9F1010F00DDB9460A9850EA4A006E
:100DE0000ED044F61050A5F2FF3545432F14B8F14C
:100DF000000F1ED07542291E1EDDC9F100021CE045
:100E0000B8F1010F4FF0000001D0302103E0F243B0
:100E100005E02154401CB042FBDB3046002200219B
:100E200021540B99C1F80880C1E900200FB0BDE83A
:100E3000F08FBD1B6D1CDEE74A4600DA694206A84A
:100E400000F094FD06AB93E8070003AB83E80700CE
:100E500050460A9900F051FE8DE80700A0F50050B9
:100E60001F3800900398002D0ADD42F21F014A4608
:100E70000844002303A90390684601F0BAF809E08A
:100E8000A0F500504A461F38002303A90390684686
:100E900001F0C4F88DE807000004000C03D04FF007
:100EA000FF30410800E01046B8F1000F03D00022E7
:100EB000009215461EE0751E05D4FFF719FF30326B
:100EC00062556D1EF9D5B3460122084302D00022B7
:100ED0007F1C04E02078302801D100227F1E002AE8
:100EE000099784D01DE0112D07DAFFF701FF30329A
:100EF00062556D1C50EA0102F5D1084302D00098FA
:100F0000C8B10EE00021681E05E0235C625C6354FA
:100F10002254401E491C8142F7DBAB46A81B401EF1
:100F20000990002004F80B000B98099AC0F808807B
:100F3000C0E9002B7AE711264FF0000857E72DE9AA
:100F4000F04F88460446D21D22F0070191B0D1E946
:100F50000001CDE90A0103F03DF802460B98C00FED
:100F600001D02D2007E02068810701D52B2002E069
:100F7000202101EAC000032A099001D0072A05DBDD
:100F800003464146204600F0B1FC0BE12078800684
:100F900001D5E06900E00620B8F1650F814606D072
:100FA000B8F1660F18D0B8F1670F70D131E00020AA
:100FB000B9F1110F009001DB112301E009F10103E8
:100FC0000AAA01A90CA8FFF7E2FEDDE90C700026D1
:100FD00009F10105834647E001204B4600904FF0A0
:100FE00000470AAA01A90CA8FFF7D1FEDDE90DB060
:100FF0000C995D46002610B909F101000D18B9EBF6
:10100000050003D4C0F1FF3609F10105A5EB090085
:101010002BE0B9F1010F01DA4FF001090020B9F11D
:10102000110F0090484601DD112300E003460AAA93
:1010300001A90CA8FFF7ABFEDDE90C704D460026B8
:101040008346207800070AD4AB4500DA5D4601A844
:10105000012D04DD411911F8011C302907D04F453D
:1010600002DA17F1040F04DA012082460FE06D1E48
:10107000EEE7002F02DCED1B3E4403E0781CA842A3
:1010800000DD7D1CB81B00F1010A4FF000472078FD
:10109000000703D4AA4501DB4FF0FF3A0021B7F166
:1010A000004F0DF143088DF8431024D002202B236C
:1010B000002F01DA7F422D230A21021EA0F1010038
:1010C00000DC5FB197FBF1FC97FBF1F201FB1C7CAC
:1010D00017460CF1300C08F801CDEEE7A8F101003D
:1010E00003702188090501D5452100E06521A0F1A3
:1010F000010800F8011C09980FA9A1EB0807FF1DC2
:1011000000B10120411901EBEA70A1693844081AC5
:10111000401EA0612078C00602D42046FFF7A3FB42
:10112000099828B1D4E901219047206A401C206227
:101130002078C00622D52046FFF795FB1EE0002E42
:1011400004DBB34502DD01A8805D00E03020D4E976
:1011500001219047206A401C2062761CAAF1010000
:101160005FEA000A0AD100F0BDFBC0680168405C7C
:10117000D4E901219047206A401C2062281EA5F175
:101180000105DCDC07E0D4E9012118F8010B9047E8
:10119000206A401C2062381EA7F10107F3DC2046BC
:1011A000FFF777FB032011B041E600002DE9F04F77
:1011B00004460D46D21D22F0070089B0D0E9009701
:1011C0004846394602F006FF0246F80F01D02D23AB
:1011D00007E02068810701D52B2302E0202101EAE6
:1011E000C0038DF820300BB1012000E00020032A5D
:1011F000824601D0072A04DB2946204600F076FB10
:101200003FE12078800601D40D2500E0E569C7F3B1
:101210000A560D2D49DA00214FEA175B08464FF0B8
:101220000000002F00F4400007DA00EB80004FF4CC
:10123000400100EBD07001EA60008115012901DD59
:101240004FF0FF3100224FEA850CBCF1180F06D396
:101250001346ACF118004FF08052C24003E04FF447
:10126000801323FA0CF30CF10C0CBCF1200F04D307
:10127000ACF1200C09FA0CF001E007FA0CF000299F
:101280004FF0004801DD18B90FE00ED140450CD3F6
:1012900019EB02095F4121B9404502D19F4329EA78
:1012A0000209BBEB175F00D0761C2088000502D531
:1012B0007B48784402E07A487844193808AA3023F9
:1012C00002F80A30037C0AF10101002E0AF1020A39
:1012D00053546A4602DC4FF0300101E04FF0310117
:1012E0004FF001088DF8001002D0A6F2FF3603E09F
:1012F00059EA470100D06B4E002D02DC2178090726
:1013000004D54FF002082E218DF80110C4460021AB
:101310000BE0C7F303433F01C35C491C6D1E02F899
:101320000830052908F1010801DA002DF1DC00215F
:101330000CE000EB1973491C1B786D1E082902F89C
:1013400008304FEA091908F1010801DA002DF0DC34
:1013500021688B0602D516E0A8F10108E04505DDFD
:1013600002EB080313F8013C302BF5D0B8F1000F65
:1013700009DD02EB080313F8013C2E2B03D109070A
:1013800001D4A8F10108002D05DD3E2102F8081066
:101390006D1E08F10108407C002E02F8080008F1DB
:1013A000010804DA2D20764202F8080002E02B2022
:1013B00002F808000A214FF47A70864208F1010809
:1013C0000BDB96FBF0F3303302F8083096FBF0F3BA
:1013D00008F1010800FB136601E0642E0CDB6420B9
:1013E00096FBF0F3303302F8083096FBF0F308F187
:1013F000010800FB136601E00A2E06DB96FBF1F004
:10140000303002F8080008F1010896FBF1F001FB0A
:101410001060303002F80800A16908F1010808EBFB
:10142000050202EB0A00081AA0612078C00602D467
:101430002046FFF718FA216A08AE01EB0A00206285
:1014400004E0D4E9012116F8010B9047BAF1010A32
:10145000F7D22078C00602D52046FFF704FA6E4680
:1014600009E016F8010B3E280FD0D4E9012190477E
:10147000206A401C2062B8F10108F2D22046FFF732
:1014800008FA09B00320BDE8F08F206A28442062E2
:1014900003E0D4E90121302090476D1EEBD3F8E73B
:1014A000E138000002FCFFFF10B5436913B1AFF350
:1014B000008001E0FFF7BAFA012010BD128800F1A8
:1014C000240182840022C2840122EDE711684FF0DA
:1014D000FF32E9E72DE9F34F4FF0000A0C4656467C
:1014E0008DB001200C9001F10C000B9062690B98FB
:1014F00001219047051E2DD0252D2CD0216A88472B
:10150000C0B162690B9801219047216A8847002881
:10151000F7D16269411E0B98904700E0761CA169E3
:101520000D988847216A88470028F7D1E1690D980E
:101530008847DBE7A1690D988847A842074601D193
:10154000761CD3E7E1690D9888477F1C02D1BAF178
:10155000000F6FD06CE162690B9800273D46394659
:1015600090472A2804D162690B98012190470125F0
:10157000DFF8D08262690B9801219047A0F1300119
:101580000A290AD24745E5DC07EB870100EB410752
:10159000303FDFD445F01005ECE7E90601D46FF0E9
:1015A00000476C280AD04C2814D0682815D06A2827
:1015B0000DD074281CD07A281AD01DE062690B98CF
:1015C000012190476C2802D045F0040514E045F055
:1015D00002050DE045F020050AE062690B98012143
:1015E0009047682802D045F0080505E045F40065FD
:1015F00062690B9801219047C4E9015765283DD0E5
:1016000019DC58287AD00CDC452837D004DC252892
:1016100026D041289ED131E046282FD0472899D1A5
:101620002CE05B2877D0612828D063287CD0642800
:1016300023D15AE0F7E06F2848D008DC66281DD097
:1016400067281BD0692821D06E2816D127E0702882
:1016500045D0732868D0752847D078280DD14DE043
:10166000A1690D988847252805463FF469AFE169CF
:101670000D9888476D1C3FF46AAFD9E00D99234659
:101680006A466FF00100AFF30080C6E045F040000D
:1016900023464FF000026060A80736D43EE0E8071A
:1016A0007FF447AF2068011D21600068290501D53E
:1016B00006701BE7290701D5068017E7A90703D5A0
:1016C000F117C0E9006111E706600FE745F040003F
:1016D00023464FF008026060A80716D41EE040F6CB
:1016E0000E0125EA0100606016E045F04000234647
:1016F0004FF00A026060A80707D40FE045F04000F1
:101700006060A80708D5234610220D996FF00100EC
:10171000AFF3008081E007E0102223460D996FF0BF
:101720000100FEF71FFF78E04FF0000963284F46E5
:10173000C8464B46CB4602D05B2807D039E020791B
:10174000C00601D40120A060012732E06269D4F80C
:101750000CB00B98012190475E2807D14FF001098A
:1017600049466269D4F80CB00B989047216939B9A1
:1017700000210A4603AB43F82120491C0829FADB63
:10178000D8B3216949B308F1010862690B980121B6
:1017900090475D28F4D1B9F1000F09D0002003A9CA
:1017A00051F82020D24341F82020401C0828F7DBC4
:1017B00003AB2069002820794FEA40701ED05B46B9
:1017C0002246CDF80080CDE901970D9900286FF0F1
:1017D000010020DAAFF300801FE0C11703AA00EB7D
:1017E000D1614B1121F01F0102EB8302411A1368F2
:1017F0000120884003431360C7E719E00D99224692
:1018000000286FF00100009702DAAFF3008004E0D7
:10181000FEF74EFF01E0AFF3008000280ADA401C1B
:1018200006D10C9820B14FF0FF300FB0BDE8F08F1B
:101830005046FAE7E90701D10AF1010A06440020FF
:101840000C9053E6CCCCCC0C70B516460C46054635
:1018500000F040F8036893F80101012806D0FF2C3E
:101860000FD8185D68B101202C7070BDD3F8070146
:101870003246214603F2071303442846BDE8704070
:1018800018474FF0FF3070BD754600F0EBF8AE46DC
:1018900005006946534620F00700854618B020B57C
:1018A000FEF7D6FCBDE820404FF000064FF00007E1
:1018B0004FF000084FF0000B21F00701AC46ACE8F8
:1018C000C009ACE8C009ACE8C009ACE8C0098D4665
:1018D0007047000010B500F005F8001D10BD00BFF6
:1018E000ED29000000487047DC0100202DE9F0419F
:1018F0001F46044603260168072A01F4006004DB42
:1019000008B116A505E016A503E008B115A500E08D
:1019100015A521F010002060A069C01EA0610FB1C4
:10192000401EA0612046FEF79EFF4FB1D4E9012181
:1019300038469047206A401C2062C01C206206E0A6
:10194000206AFAE7D4E9012115F8010B9047761EC9
:10195000F8D22046FEF79DFFBDE8F0814E414E00D3
:101960006E616E00494E4600696E66002DE9F047D3
:10197000814616468AB0354878440DC88DE80D007A
:1019800032487844801C03AC0DC884E80D0041F651
:101990009B300844372190FBF1F290FBF1F5A5F163
:1019A000800501FB12041B3C02D56442012000E0CB
:1019B0000020DFF898A080460027FA44AAF1BE0A6A
:1019C0000EE0E0070AD03246684607EB47010123E4
:1019D0000AEB810100F022FB8DE8070064107F1CF8
:1019E000002CEED1194F7F44AE3F19E0E80715D027
:1019F00007EB04100DF1180A90E80E008AE80E00BB
:101A0000C068F04201D1981908903246012306A916
:101A100003A800F003FB03AB83E807006D10641C10
:101A2000002DE3D14FF0010332466946B8F1000FB3
:101A300003A802D000F0DDFA01E000F0EFFAC9E9F6
:101A40000001C9F808200AB0BDE8F087AC320000F8
:101A500010B50446AFF300802046BDE81040FEF705
:101A6000E2BB000000487047BC0100204FF0013C81
:101A700050F8042B51F8043B9A4221D1A2EB0C03FD
:101A8000934313EACC1317D150F8042B51F8043BBD
:101A90009A4215D1A2EB0C03934313EACC130BD15A
:101AA00050F8042B51F8043B9A4209D1A2EB0C03E5
:101AB000934313EACC13DBD04FF00000704700BF14
:101AC000D01A01BAB1FA81F101F0180122FA01F03D
:101AD000CB40C1F12001DBB2C0B2C01A2CFA01F335
:101AE000D11A914311EAC311E6D170470149182078
:101AF000ABBEFEE72600020070475FEA400C08BF5D
:101B000091F0000F4FEA8C234FEAC12243EA515172
:101B10004FEA1C5018BF00F5F0404FEA300018BFE4
:101B200041F000415FEA6C5C00F02980BCF1FF3FAE
:101B300008BF40F080407047130C06BF12044FF0FE
:101B4000100C4FF0000C130E04BF12020CF1080C25
:101B5000130F04BF12010CF1040C930F04BF920089
:101B60000CF1020CD30F04BF52000CF1010C114612
:101B70004FF00002A0F11F00A0EB0C00704711F025
:101B8000004F08BF704731F000413FF4D5AF0B0C58
:101B900006BF09044FF0100C4FF0000C0B0E04BFF1
:101BA00009020CF1080C0B0F04BF09010CF1040C25
:101BB0008B0F04BF89000CF1020CCB0F04BF49004E
:101BC0000CF1010CCCF12003A0EB0C0022FA03F382
:101BD00002FA0CF241EA030100F10100704720F023
:101BE0007F4C80EA030023F07F47ACEB070303F54B
:101BF0007C5300F0004003F1FF032DE980494FEAD8
:101C0000154B09B44FEA144325EA0B4E24EA034866
:101C10000FF2042606EB132749083E785FEA3202EA
:101C200003FB0667C7F5000707FB06F64FEA5437C4
:101C30004FEAD64606F1020607FB066CCCF1005CC3
:101C40004FEA1C472CEA074C07FB06F40CFB06F591
:101C500004EB15464FEA961634BF00204FF00040C3
:101C60004FEAD13706FB07FC4FEA1C4C0CFB0BF785
:101C7000D21B03FB0CF761EB07010CFB0EF7B0EB7B
:101C8000074072EB17420CFB08F734BFA2EB074288
:101C9000B2EB074261EB17414FEA0C444FEA910760
:101CA00006FB07FC4FEA1C4C0CFB0BF7B0EBC740E4
:101CB00072EB573203FB0CF734BFA2EBC742B2EB17
:101CC000C74261EB57310CFB0EF7B0EBC70072EB6C
:101CD00057720CFB08F734BFA2EBC702B2EBC70286
:101CE00061EB5771039F4FEA816141EA921104EB66
:101CF000CC044FEAD1374FEA826206FB07FC42EA86
:101D000090124FEA80604FEA1C4C0CFB0BF7D21B81
:101D100003FB0CF761EB07010CFB0EF7B0EB074080
:101D200072EB17420CFB08F734BFA2EB0742B2EB91
:101D3000074261EB17414FEA8C554FEA910704EBDC
:101D40009C2406FB07FC4FEA1C4C0CFB0BF7B0EB8A
:101D5000C74072EB573203FB0CF734BFA2EBC7420C
:101D6000B2EBC74261EB57310CFB0EF7B0EBC7008B
:101D700072EB57720CFB08F734BFA2EBC702B2EB51
:101D8000C70261EB577115EB4C254FEA816141EABF
:101D900092114FEA82624FEAD13742EA901206FB73
:101DA00007FC44F100044FEA80604FEA1C4C0CFB36
:101DB0000BF7D21B03FB0CF761EB07010CFB0EF7D3
:101DC000B0EB074072EB17420CFB08F734BFA2EBF5
:101DD0000742B2EB074261EB174115EB1C154FEAC6
:101DE000813141EA92414FEA823242EA90424FEA1F
:101DF00080304FEA0C7644F1000448EA03434EEA8F
:101E00000B484FF0000EB2EB080C71EB030724BF38
:101E1000624639464EEB0E0E4FF0000B0018524151
:101E200049414BEB0B0BB2EB080C71EB03077BF159
:101E3000000B24BF624639464EEB0E0E4FF0000BEE
:101E40000018524149414BEB0B0BB2EB080C71EB04
:101E500003077BF1000B24BF624639464EEB0E0EA2
:101E600051EA020718BF46F0010616EB0E7655F14F
:101E7000000254F1000103D5BDE88901BDE80088E6
:101E8000BDE88901BDE80048B619524141EB0101A6
:101E9000A3F10103704780807F7E7D7C7B7A797817
:101EA000777676757473727171706F6E6E6D6C6C1F
:101EB0006B6A6A69686867666665646463636261C1
:101EC0006160605F5F5E5E5D5D5C5C5B5B5A5A5942
:101ED00059585857575656555555545453535252AE
:101EE0005251515050504F4F4F4E4E4D4D4D4C4C06
:101EF0004C4B4B4B4A4A4A4949494848484747474F
:101F0000474646464545454444444443434343428B
:101F1000424242414141002B9C4630D477002BD0B5
:101F20001CB54FEA370703B44FF010004FF0100113
:101F3000BAF1000F06D0BCF1000FDCBF40F0080082
:101F400040F008014FF000000FBCBDE810400BF15D
:101F5000010BBBF1010F08BF5FEA170722BF12F1A7
:101F6000010211F101014FF0004143F1000300F0C3
:101F7000004043EA00007047F9D35708D0E746EA2B
:101F8000064613F1400F4FEA16461FDD13F1200FEE
:101F9000DFBF16430A46002120335B42BED0C3F1A7
:101FA000200746EA064602FA07F74FEA164646EACF
:101FB0000706C3F1200722FA03F201FA07F721FA14
:101FC00003F14FF0000342EA0702A7E746EA0206E0
:101FD00046EA06464FEA164646EA0106BCBF46EA0E
:101FE0000646360C4FF000034FF000024FF00001A0
:101FF00094E72DE9804C9A46934670B491E83800F6
:1020000007C831EA400C48BF34EA430C03D5FFF758
:10201000E6FDFFF780FFF0BCBDE8008C2DE9804CA9
:102020009A46934670B491E8380007C810F0804F84
:1020300008BF13F0804F03D100F005F8FFF76BFFE6
:10204000F0BCBDE8008C20F07F4780EA030023F05D
:102050007F4C07EB0C03A3F57C5300F00040A3F189
:10206000FE0392F0000F00F0B38095F0000F00F037
:1020700077802DE901494FEA11404FEA144621EAE1
:10208000004800FB06FC24EA064708FB06F607FBAF
:1020900008F800FB07F718EB06484CEB164C4FEA24
:1020A000124B18EB07484FEA15464CEB174022EA53
:1020B0000B4E0BFB06FC25EA06470EFB06F607FB5C
:1020C0000EFE0BFB07F71EEB064E4CEB164C4FF0CB
:1020D00000061EEB074E4CEB174B18EB0B0840F1BC
:1020E000000018EB0E0B58EB000840F100008F1AAF
:1020F0004FF000013CBFC943661B14BFB5EB040C95
:1021000000213CBFC943F61B4FEA17444EEA8E0E2E
:1021100027EA04454FEA1C4704FB07622CEA074CF8
:1021200005FB07F70CFB05F604FB0CFC16EB07465A
:1021300042EB174216EB0C4642EB1C421BEB060629
:1021400058EB0202414146EA9E0601D5BDE80189ED
:10215000B619524141EB0101A3F10103BDE8018928
:102160004FEA14454FEA114724EA054621EA074C95
:1021700005FB07F406FB07F70CFB06F105FB0CFC5F
:1021800011EB074144EB17444FEA124711EB0C41A6
:1021900044EB1C4422EA074C05FB07F206FB07F759
:1021A0000CFB06F605FB0CFC16EB074642EB174250
:1021B00016EB0C4642EB1C456A1854F1000148BF6F
:1021C0007047B619524141EB0101A3F10103704779
:1021D00095F0000F37D04FEA11424FEA144721EA39
:1021E000024624EA074C02FB07F106FB07F70CFB4B
:1021F00006F402FB0CFC14EB074441EB17414FEAD9
:10220000154714EB0C4441EB1C4125EA074C02FB3B
:1022100007F506FB07F70CFB06F602FB0CFC16EBBA
:10222000074645EB174516EB0C4645EB1C421219C9
:1022300051F1000148BF7047B619524141EB01010D
:10224000A3F1010370474FEA14454FEA114724EA0E
:10225000054621EA074C05FB07F106FB07F70CFBD7
:1022600006F24FF0000605FB0CFC12EB074241EBB7
:10227000174112EB0C4251EB1C4148BF70479218BA
:1022800041EB0101A3F101037047FEE770474FF4F2
:10229000807000F0F3B872B6FEE710B590F8211028
:1022A0000022022905D00421816380F8202001202A
:1022B00010BD01680B6823F00E030B6001680B680A
:1022C00023F001030B6090F84030C46B012101FA48
:1022D00003F3636080F8211080F82020104610BDC1
:1022E00010B590F821100024022903D00421816345
:1022F00001243DE001680A6822F00E020A600168CC
:102300000A6822F001020A601A4A0168914201D16A
:10231000012121E0174A1432914201D110211BE022
:10232000144A2832914201D1891515E0114A3C32F4
:10233000914201D189140FE00E4A5032914202D1EC
:102340004FF4803108E00B4A6432914202D14FF4DD
:10235000801101E04FF08071064A083A5160012176
:1023600080F82110002180F82010416B01B18847CE
:10237000204610BD0800024070B5044600F080F908
:102380000546601C02D004480078044400F078F947
:10239000401BA042FAD370BD340000202DE9F0416B
:1023A000B0F5807F65D1344C01252078F8B1002646
:1023B0004FF002084FF47A7701281AD0022858D13A
:1023C00001F0CCFEA06001F0B1FEA16804F11000A4
:1023D000A1F52072BA4221D8A18800EBD10201F008
:1023E0000701137805FA01F18B43137026E025707D
:1023F0002CE001F0B3FEA06001F098FEA068A0F50B
:102400004851C839B94202D884F800801EE0A0F5CE
:102410002450FE38B8422BD8657029E0A1F2D6616D
:10242000B9420AD8A38800EBD30203F0070311785E
:1024300005FA03F31943117000E02670A188491CC6
:1024400089B2A18084F80080202903D0BDE8F04142
:1024500001F062BEA6808178C94311F0FF010170CE
:1024600006D0C178C94311F0FF01417000D0A570BA
:102470002670BDE8F081000020000020044910B55E
:102480000A68024202D00860FFF788FF10BD000012
:10249000140401402DE9F84FDFF8B8910024A9F1A8
:1024A000040B23460F2709F1040AABF1040EC9E01F
:1024B0000125A5402A40AA427DD1674ED1F804C02B
:1024C000ACEB0608B44532D014DCBCF1030F3AD0B3
:1024D00009DCBCF1000F2AD0BCF1010F1CD0BCF10B
:1024E000020F31D11DE0BCF1110F17D0BCF1120F5A
:1024F0002AD119E0B8F5881F19D006DCB8F5803F5D
:1025000015D0B8F5801F1FD111E0B8F5001F0ED00F
:10251000B8F5041F18D10AE0CB6815E0CB681B1D85
:1025200012E0CB6808330FE0CB680C330CE08B680B
:102530002BB1012B4FF0080303D0456104E00423C5
:1025400002E0056100E00023FF2A01D8064601E011
:1025500000F104064FEA840501D9A5F12005D6F85B
:10256000008007FA05FC28EA0C0803FA05F548EA9A
:102570000508C6F800804D68ED0062D5374DAE699C
:1025800046F00106AE61AD6924F0030605F00105D1
:102590000095334D06EB050CDCF80850A607360F06
:1025A00007FA06F825EA0805DFF8B880404503D1A8
:1025B0004FF0000817E044E0DFF8AC80404502D15E
:1025C0004FF001080FE0DFF8A480404502D14FF042
:1025D000020808E0DFF89880404502D14FF0030878
:1025E00001E04FF0040808FA06F848EA0508CCF8BC
:1025F00008804D68D9F80060ED024D4601D51643BC
:1026000000E096432E604D68DAF80060AD02554652
:1026100001D5164300E096432E604D68DBF800605C
:10262000AD035D4601D5164300E096432E604D682C
:10263000DEF80060ED03754601D5164300E09643D1
:102640002E60641C0D682A46E5407FF431AFBDE87A
:10265000F88F000008040140000011100010024033
:102660000000014000080140000C01400010014042
:10267000001401400AB1016170470904FBE7000042
:1026800001488068704700003400002070B50400E5
:1026900025D094F83D00002520B984F83C50204610
:1026A00000F050F9242084F83D002068016821F0F2
:1026B000010101602068016841F400410160206867
:1026C000016821F40041016000F098FA4D4A616808
:1026D000914201D84C4900E04C49884201D2012086
:1026E00070BD4B492368B0FBF1F15E6826F03F06F0
:1026F0000E435E606368934206D94FF49673594364
:102700004FF47A73B1FBF3F12368491C1E6A26F07B
:102710003F06314319626168914210D84900401E5A
:10272000B0FBF1F2521CC2F30B02042A01D20420C6
:1027300022E0B0FBF1F0401CC0F30B001CE0A268EB
:10274000F2B301EBC10303EB0116431EB3FBF6F337
:102750005B1C43F480431B0549D092B301EBC102DB
:1027600002EB0111401EB0FBF1F0401CC0F30B0066
:1027700040F4804040F400402168CA694CF6FF7381
:102780009A431043C861D4E90710014320680268E6
:1027900022F0C00211430160D4E903010143206823
:1027A000826848F2FF339A4311438160D4E90501FE
:1027B00008432168CA6822F0FF021043C86001E0A4
:1027C0000EE016E02068016841F001010160256417
:1027D000202084F83D00256384F83E50002070BD21
:1027E00001EB4106431EB3FBF6F35B1CB3E701208C
:1027F000C2E701EB4101401EB0FBF1F0401CC0F309
:102800000B00B7E7A086010080841E0000093D0090
:1028100040420F002DE9FF4F83B09A46DDE9119742
:1028200093460446DDF84080FFF72AFF054694F8FA
:102830003D0020287FD119230122404920460095E0
:1028400000F07AFF002876D194F83C00012872D07D
:10285000012084F83C0020680168C90703D10168A1
:1028600041F0010101602068016821F4006101600C
:10287000212084F83D00402084F83E000026266494
:10288000C4F82480A4F82A90608D20852C48E0624A
:10289000CDE9007553465A462046049900F0CCFE17
:1028A00070B930E02A463946204600F0EBFF58B1B7
:1028B000206C042804D12068016841F40071016093
:1028C000012007B0BDE8F08F606A216800780861D8
:1028D000606A401C6062218D491E89B22185628D2B
:1028E000521E628522685369DB435B070BD469B1D2
:1028F00000781061606A401C6062208D401E208557
:10290000608D401E6085208D0028CBD12A46394637
:10291000204600F0E5FE0028CAD154F83D0B0168BE
:1029200041F400710160202004F81E09E677667703
:102930000020C6E7FFE70220C3E700000200100006
:102940000000FFFF10B586B00021009101910291B7
:10295000039100680F4988421AD10F4CA06940F0DA
:102960000800A061A069694600F008000490C0203A
:10297000009012200190032003900848FFF78AFD81
:10298000E06940F40010E061E06900F40010049098
:1029900006B010BD0054004000100240000C014081
:1029A0000248816802781144816070473400002039
:1029B000074810B5016841F010010160032000F0E4
:1029C00075F80F2000F006F800F024F8002010BD84
:1029D0000020024070B50D4D04464FF47A712878FE
:1029E000B1FBF0F00A490968B1FBF0F000F0DCFA45
:1029F00048B9102C07D200222146501E00F036F8AC
:102A000000206C6070BD012070BD0000340000200B
:102A1000400000200C4808B5816941F00101816146
:102A2000816901F001010091C16941F08051C161EA
:102A3000C06900F0805000900448416821F0E061D6
:102A400041F00071416008BD0010024000000140EB
:102A5000002809DB00F01F0201219140400980009D
:102A600000F1E020C0F8001170470000F0B40E4BF8
:102A70001B680C46C3F30223C3F10705042D00D9DC
:102A80000425191D072901D2002300E0DB1E0126C1
:102A900006FA05F1491E214099409E40761E1640D7
:102AA0003143F0BC01F0AABA0CED00E0064900F099
:102AB000070208684FF6FF03184040EA0220034A65
:102AC00010430860704700000CED00E00000FA05BC
:102AD0002DE9F0470F46050061D0434E306800F005
:102AE0000700B84209D2306820F007003843306050
:102AF000306800F00700B84251D128683B4C81078C
:102B000012D5400703D5606840F4E0606060287823
:102B1000000703D5606840F4605060606068A96891
:102B200020F0F000084360602878C00728D068686B
:102B3000012810D02168022810D0890700292EDA38
:102B4000616821F0030101436160FFF799FD804650
:102B500041F288390DE021688903EFE78901EDE74B
:102B6000FFF78EFDA0EB0801494502D90320BDE81F
:102B7000F0876068696800F00C00B0EB810FEFD15E
:102B8000306800F00700B8420BD9306820F0070029
:102B900038433060306800F00700B84201D00120AF
:102BA000E5E72878400705D56068E96820F4E0602B
:102BB000084360602878000706D56068296920F41A
:102BC000605040EAC100606000F038F86168084A6F
:102BD000C1F30311515CC84006490860064800680B
:102BE000FFF7F8FE0020C2E700200240001002407C
:102BF0002A4B000840000020380000200448054906
:102C000000684968044AC1F30221515CC84070471A
:102C100040000020001002403A4B000804480549DB
:102C200000684968044AC1F3C221515CC84070473A
:102C300040000020001002403A4B00080E4A516844
:102C40000E4801F00C03042B11D0082B0FD10C48B7
:102C5000C1F38343C903C05C0AD55168084AC1F374
:102C60004041921E515C054A5043B0FBF1F0704761
:102C700004494843704700000010024000127A00E7
:102C80001A4B000800093D002DE9F84F040070D0F0
:102C90002078C04DC00749D06868C0F38100012882
:102CA00007D06868C0F38100022809D16868C003B2
:102CB00006D52868800339D560680028E7D035E05C
:102CC0006068B0F5803F0BD010B1B0F5A02F11D0E7
:102CD000286820F480302860286820F4802002E0F2
:102CE000286840F480302860606890B1FFF7C8FC25
:102CF00006460AE0286840F480202860F0E700BF1C
:102D0000FFF7BEFC801B642873D828688003F7D5C2
:102D10000CE0FFF7B5FC064605E000BFFFF7B0FC8E
:102D2000801B6428F0D828688003F7D420789A4E56
:102D300080074FF001094FF0000839D5686810F09E
:102D40000C0F07D06868C0F38100022809D16868B9
:102D5000C00306D42868800714D52069012808D14B
:102D600010E02069B0B1C6F80090FFF789FC074673
:102D700005E00AE1FFF784FCC01B0228C4D82868DC
:102D80008007F7D52868616920F0F80040EAC100A3
:102D900028600DE0C6F80080FFF772FC074604E0EB
:102DA000FFF76EFCC01B022823D828688007F7D4E1
:102DB000207800072CD57948A169D9B1C0F80090D6
:102DC000FFF75EFC074604E0FFF75AFCC01B022831
:102DD0000FD8686A8007F7D571484FF4FA51006838
:102DE000B0FBF1F0009000BF0098411E0091FAD2B4
:102DF0000EE080E0C0F80080FFF742FC074604E0E8
:102E0000FFF73EFCC01B022875D8686A8007F7D41C
:102E10002078400760D5E8690027C00008D4E86939
:102E200040F08050E861E869012700F08050009090
:102E30005C480168C90513D40168834641F4807178
:102E40000160FFF71DFC824606E000BFFFF718FC9B
:102E5000A0EB0A0064284ED8DBF80000C005F5D5C9
:102E6000E06801280AD008B1052813D0286A20F0AC
:102E700001002862286A20F0040002E0286A40F07D
:102E800001002862E06841F2883B98B1FFF7F8FB47
:102E900082460BE0286A40F004002862EEE700BF9B
:102EA000FFF7EEFBA0EB0A0159455AD8286A8007C4
:102EB000F6D50CE0FFF7E4FB824605E0FFF7E0FB08
:102EC000A0EB0A0159454CD8286A8007F6D41FB1F7
:102ED000E86920F08050E861E06988B36968C1F36F
:102EE0008101022944D00228C6F8608004D0FFF78F
:102EF000C7FB044638E034E0FFF7C2FB074604E0B6
:102F0000FFF7BEFBC01B02282BD828688001F7D42E
:102F1000206AB0F5803F05D16868A16820F40030D0
:102F200008436860D4E908010843696821F4741112
:102F300008436860C6F86090FFF7A2FB044606E00D
:102F400025E000BFFFF79CFB001B022809D828687A
:102F50008001F7D51BE000BFFFF792FB001B0228A2
:102F600002D90320BDE8F88F28688001F4D40EE070
:102F70000128F7D06868226A00F48031914204D1B8
:102F8000616A00F47010884201D00120EAE7002055
:102F9000E8E7000000100240000042428004424284
:102FA000400000200070004010B5401EB0F1807F4E
:102FB00001D3012010BD4FF0E02460610F216017A4
:102FC00001F01CF80020A06107202061002010BD46
:102FD00070B590F83C20012A26D0012480F83C40AE
:102FE000022280F83D2003685A689D6822F070062E
:102FF0000A6832435A600D4B02689A4208D0B2F117
:10300000804F05D00A4B9A4202D00A4B9A4204D113
:10301000496825F080031943916080F83D40002104
:1030200080F83C10084670BD022070BD002C0140A5
:10303000000400400008004010B5040003D094F8DC
:103040003D0010B107E0012010BD002084F83C00D5
:10305000204600F01FF8022084F83D00211D206862
:1030600000F0E6FD012084F8460084F83E0084F874
:103070003F0084F8400084F8410084F8420084F85E
:10308000430084F8440084F8450084F83D000020A3
:1030900010BD000008B500680649884208D10648FE
:1030A000816941F400618161806900F400600090F1
:1030B00008BD0000002C01400010024090F83D10B7
:1030C000012901D001207047022180F83D100068DD
:1030D0000B49884208D0B0F1804F05D00949884299
:1030E00002D00949884204D1816801F0070106290C
:1030F00003D0016841F00101016000207047000029
:10310000002C0140000400400008004001680A6AE9
:1031100041F211131A4207D10A6A9B101A4203D1D5
:103120000A6822F001020A60012180F83D100020A7
:10313000704770B5044690F83C000025012817D070
:10314000012684F83C60022084F83D0020688268F3
:1031500022F0770222F47F4282600868502838D03B
:103160000DDC20284FD005DC90B3102811D14AE0A7
:10317000022070BD302846D040280AD13BE06028AC
:103180002FD070280DD0B0F5805F03D0B0F5005F70
:1031900012D0012584F83D60002084F83C002846C8
:1031A00070BDCB68D1E90121206800F07DFD206869
:1031B000816841F0770109E0CB68D1E901212068FD
:1031C00000F072FD2068816841F480418160E1E790
:1031D00019E0CA684968206800F078FD502120682D
:1031E00006E0CA684968206800F081FD6021206817
:1031F00000F064FDCEE7CA684968206800F066FD0B
:1032000040212068F4E7226801461046F0E7704745
:1032100070470000F8B5016804460868CA684B6941
:1032200010F00F0F4FF0000559D003F0010602F423
:103230009077374365D0C10705D0D10503D5616CC0
:1032400041F001016164410705D5D90703D0616CE4
:1032500041F002016164810705D5D90703D0616C93
:1032600041F004016164010707D502F020013143F8
:1032700003D0616C41F008016164616C00293AD0AF
:10328000800604D5900602D5204600F071FD206826
:103290004069616CC0F38010090700D460B3204618
:1032A00000F03FFD20684069400621D520681430B9
:1032B00050E8001F21F0400140E80012002AF5D13B
:1032C000E06BA8B16D494163E06BFFF709F8002896
:1032D00011D0E06B416B01B0BDE8F04008478306B8
:1032E0000FD593060DD52046BDE8F84000F040BD4F
:1032F0002046FFF78DFFF8BD2046FFF789FF656484
:10330000F8BD266B2023012E7CD1C6067AD5D606C1
:1033100078D508684868009048694FF00206400672
:1033200040D5E16B086840680004000CE8D0A28D2D
:103330008242E5D9E085886920282DD020680C30AC
:1033400050E8001F21F4807140E80012002AF5D1F6
:103350002068143050E8001F21F0010140E80012FD
:10336000002AF5D12068143050E8001F21F04001F8
:1033700040E80012002AF5D184F842302563206825
:103380000C3050E8001F21F0100140E80012002A24
:10339000F5D1E06BFEF781FF6663A08DE18D401AE9
:1033A00081B22AE0A08DE18D401A81B2E08D002823
:1033B000A6D00029A4D022680C3252E8000F20F4D5
:1033C000907042E80007002FF5D12068143050E8D3
:1033D000002F22F0010240E80027002FF5D184F8E9
:1033E0004230256320680C3050E8002F22F0100294
:1033F00040E80023002BF5D166632046FFF707FF66
:10340000F8BDFFE705062BD5150629D594F8410030
:103410002128F5D1A068B0F5805F01D12069B0B155
:10342000206A411C2162216800784860E08C401EBF
:103430000004000CE084E3D12068C16821F0800121
:10344000C1602068C16841F04001C160D8E7206ACE
:103450000088C0F308004860206A801C2062E5E70D
:103460004006CDD55006CBD5CA68204622F0400292
:10347000CA6084F8413000F0C6F8C1E7133D000887
:1034800070B5040004D094F84100002510B106E0A6
:10349000012070BD84F84050204600F023F824201D
:1034A00084F841002068C16821F40051C1602046C1
:1034B00000F0C0FC2068016921F49041016120689E
:1034C000416921F02A0141612068C16841F400513D
:1034D000C1606564202084F8410084F8420065637F
:1034E000002070BD30B585B0002400940194029492
:1034F00003940068184988422CD11848816941F426
:1035000080418161816901F480410491816941F0C8
:10351000040181618069124D00F0040004904FF4B1
:103520000070009002200190032003906946284615
:10353000FEF7B0FF2815CDE900046946284602943D
:10354000FEF7A8FF002202212520FFF78FFA252091
:10355000FFF77EFA05B030BD003801400010024090
:103560000008014070472DE9F843044690F84100F7
:10357000984616460D46202802D00220BDE8F88362
:1035800085B17EB100206064212084F84100FFF7FE
:1035900077F8A6848146E684A0682027B0F5805F8E
:1035A00002D003E00120E9E7206910B12E46002592
:1035B0000EE000260CE08021204600F097FCA8B920
:1035C000C6B116F8010B21684860E08C401EE0840B
:1035D000E08C4B464FF00002CDF800800028EAD185
:1035E0004FF04001204600F081FC40B184F841706A
:1035F0000320C3E735F8020BC0F30800E3E784F8C3
:1036000041700020BAE77047FEE701684A69D2437B
:1036100052050FD46FF480624A61002140F8301FD8
:10362000202242738173026942F004020261017335
:1036300001207047002070472DE9F84304460068D8
:103640000D46DDE9089701689846164641F48071F9
:1036500001604B4600224FF001112046009700F018
:103660006BF848B120680068C00502D54FF40070BF
:1036700020640320BDE8F883216805F0FE0008619E
:103680003B464A461549204600F09EF888B9206816
:103690004169806900903A464946204600F0F2F8B8
:1036A00048B1206C042804D12068016841F40071FD
:1036B00001600120DEE7F5B2B8F1010F09D0216801
:1036C000300A08613A464946204600F0DBF80028F7
:1036D000E7D1206805610020CCE70000020001006E
:1036E00070B516460D4604461EE02046FFF78DFFD6
:1036F00008B1012070BD681C16D0FEF7C1FF801B09
:10370000A84200D885B920684069C04340070BD55E
:10371000002044F8300F20216173A073216941F02B
:10372000200121612073E4E720684069C04340071D
:10373000DBD4002070BD00002DE9F0479846174605
:103740000D460446C1F30746DDF820902AE000BF8D
:10375000B8F1FF3F26D0FEF793FFA0EB09014145EA
:1037600002D8B8F1000F1DD12068012E16D0806953
:1037700025EA00000004000C12D00020B84211D14C
:10378000002044F8300F20216173A073216941F0BB
:103790002001216120730120BDE8F0874069E7E73F
:1037A0000120EBE72068012E0AD0806925EA00009D
:1037B0000004000C06D00020B842C9D00020EBE77E
:1037C0004069F3E70120F7E72DE9F04798461646F0
:1037D0000D4604464FF000094FF0200AC1F3074799
:1037E00023E020684069C043400515D42068016883
:1037F00041F40071016021686FF480604861C4F891
:10380000309084F83DA084F83E90216C41F0040192
:10381000216484F83C9021E0701C06D0FEF730FF54
:10382000A0EB0800B04203D816B1012F1FD021E051
:103830002068012F15D0806925EA00000004000CE3
:1038400018D000BF44F8309F84F80DA084F80E9083
:10385000216941F02001216184F80C900120BDE82C
:10386000F087406925EA00000004000CEAD12068D6
:10387000406901E02068806925EA00000004000C2E
:10388000AFD1ECE770B516460D4604461EE0204663
:10389000FFF7BBFE08B1012070BD681C16D0FEF713
:1038A000EFFE801BA84200D885B920684069C0435C
:1038B00000060BD5002044F8300F20216173A0735F
:1038C000216941F0200121612073E4E7206840690B
:1038D000C0430006DBD4002070BD000070B586B088
:1038E000002520480095019502950395816941F0D6
:1038F00020018161816901F020010491816941F019
:1039000008018161816901F008010491816941F038
:10391000040181618069144E00F0040004900022CB
:1039200001213046FEF7A6FE0220CDE90250012417
:103930000094694601943046FEF7ACFD20020090E9
:103940000A48CDE9010469460948FEF7A3FD0022B3
:1039500001211720FFF78AF81720FFF779F806B042
:1039600070BD000000100240000C0140000021105A
:10397000000801400D4810B50B4901600C49416039
:1039800000214FF480428160C0E9031241618161EE
:10399000C1610162FEF77AFE002803D0BDE8104045
:1039A000FEF779BC10BD0000005400405800002014
:1039B000A086010010B586B0002417480094019439
:1039C0000294039404941349059401604721C0E9CB
:1039D00001144FF6FF71C0E9031444618461FFF7DD
:1039E0002BFB08B1FEF757FC4FF48050009069465E
:1039F0000948FFF79EFB08B1FEF74DFC049404A9AB
:103A000005480594FFF7E4FA002801D0FEF743FCCF
:103A100006B010BD002C0140AC0000200C4810B5D1
:103A20000A4901604FF4E1314160002181600C22BC
:103A3000C160C0E904128161C161FFF721FD002866
:103A400003D0BDE81040FEF726BC10BD0038014091
:103A500074010020FEE7FEE770B5002404F1B00019
:103A6000C0B200F08DF8002000F08AF8102000F0BD
:103A700087F80025002000F095F86D1CEDB2802D30
:103A8000F8D3641CE4B2082CE8D370BD10B5C8208C
:103A9000FEF772FCBDE8104000F082BA10B5044693
:103AA000B031C8B200F06CF8102040EA141000F0F9
:103AB00067F804F00F00BDE8104000F061B80000A6
:103AC0002DE9F041203A00240D468046D6B27F28E9
:103AD00003D900208D1C8046EDB2102B29460FD053
:103AE000FFF7DCFF164906EB460001EB4005285DB9
:103AF00000F058F8641CE4B2062CF8D3BDE8F0815D
:103B0000FFF7CCFF0F4F00BF04EB0610385C00F04E
:103B100049F8641CE4B2082CF6D36D1CE9B24046A7
:103B2000FFF7BCFF5FF0000404EB06103844007A96
:103B300000F038F8641CE4B2082CF5D3DEE700008E
:103B400000430008284500082DE9F0419846174633
:103B50000E46044600250DE0434631462046FFF759
:103B6000AFFF0834E4B2782C02D90024B61CF6B2B8
:103B70006D1CEDB27A5D002AEED1BDE8F081000047
:103B800001B584B001214FF4807204A88DE80700CC
:103B90000B46002278210248FEF73CFE05B000BD2E
:103BA0005800002001B584B001214FF4807204A8B0
:103BB0008DE807000B46402278210248FEF72AFED6
:103BC00005B000BD5800002070477047FEF7E8BE02
:103BD00030B58FB028216846FCF71BFE14210AA8D7
:103BE000FCF717FE01210804CDE90010002402941F
:103BF00002250491CDE907504FF4E0100990684682
:103C0000FFF742F808B172B6FEE70F20CDE90A05CA
:103C10004FF48060CDE90C4002210AA80E94FEF713
:103C200057FF002801D072B6FEE70FB030BD7047D5
:103C3000F0B50268194B1A4C1A4D4FF08047984264
:103C400005D0B84203D0A04201D0A84203D122F04F
:103C500070064A683243984205D0B84203D0A04269
:103C600001D0A84203D122F44074CA6822434C69AF
:103C700022F08002224302608A68C2620A6882627D
:103C8000984201D109690163012141610169C907B4
:103C900003D0016921F001010161F0BD002C014058
:103CA000000400400008004010B5846842EA032286
:103CB00024F47F440A432243826010BD826822F0CC
:103CC00070020A4342F007018160704710B5036A31
:103CD000046A24F001040462846924F0F00444EAD4
:103CE000021423F00A020A438461026210BD10B577
:103CF000036A046A24F010040462846923F0A003B8
:103D000024F4704444EA023243EA01118261016200
:103D100010BD10B5406A0021C185C184FFF778FA53
:103D200010BD01680C3151E8002F22F4907241E877
:103D30000023002BF5D10168143151E8002F22F047
:103D4000010241E80023002BF5D1016B012909D1C3
:103D500001680C3151E8002F22F0100241E80023E5
:103D6000002BF5D1202180F842100021016370471B
:103D700008B590F84210222901D0022008BD8268BF
:103D80004FF480539A4201D1016921B1816A9A426C
:103D90001BD04AB10AE00268816A5268C2F3080285
:103DA0000A80816A891C08E0026972B1026852685F
:103DB00002F07F020A70816A491C8162C18D491E2E
:103DC0000904090CC18503D01BE002685268F1E7C1
:103DD0000168CA6822F02002CA600168CA6822F439
:103DE0008072CA6001684A6922F001024A6120219A
:103DF00080F8421000214163026B012A03D0FFF7D3
:103E0000B1FB002008BD016301680C3151E8002FAF
:103E100022F0100241E80023002BF5D101680A6866
:103E2000D20602D50A6849680091818DFFF7EFF943
:103E3000E7E7000070B5044600680169E26821F414
:103E40004051114301612169A06808436169084339
:103E50002168CA6841F20C639A430243CA60206831
:103E60004169A26921F44071114341611E492068F2
:103E7000884202D1FEF7D2FE01E0FEF7BFFE00EB62
:103E8000C00101EB0012606864218000B2FBF0F316
:103E9000B3FBF1F36FF018067343B2FBF0F5B2FB1E
:103EA000F0F605EB8305322303EB0515B5FBF1F5C1
:103EB000B6FBF1F605F0F00505EB0615B2FBF0F6E2
:103EC000B2FBF0F0B0FBF1F06FF01802504306EBDC
:103ED000800003EB0010B0FBF1F0216800F00F0050
:103EE0002844886070BD0000003801402DE9F84387
:103EF000984617460D460446089E24E0701C22D0C2
:103F0000FEF7BEFBA0EB0800B0421AD8CEB1206885
:103F1000C168490717D5802D15D0402D13D00168F1
:103F2000C94309070FD40168002540680090204666
:103F3000FFF7F7FE0820606484F840500120BDE8D8
:103F4000F8830320FBE72068006835EA000004D00E
:103F50000020B842D2D00020F1E70120F9E70000AC
:103F60000148FFF757B90000740100200FB4802109
:103F700010B503AB0848029AFCF77CF90648FCF739
:103F800007FC054982B24FF0FF3301F18000FFF7D3
:103F9000EAFA10BC5DF814FBF4000020FEE7000014
:103FA000FEB50024094F4FF4807501263819CDE97C
:103FB000000601230022782102950548FEF72AFC1D
:103FC000641CE4B21B2CF1D3FEBD000004000020F1
:103FD00058000020490050EAC12018BF04204A0DB3
:103FE00018BF40F0010040F2FF72B2EB515F08BF12
:103FF00040F00200012808BF052070470907090E9C
:10400000002804DB00F1E02080F80014704700F085
:104010000F0000F1E02080F8141D704730380A28A6
:1040200001D20120704700207047000070B58CB0AD
:104030000020019002908DF82C0002A800900BAB9C
:1040400001AA29A12A48FCF76FFA9DF82C102948EB
:104050002A290ED02B2904D02D2906D02F2912D1A0
:104060000BE0DDE9011211440CE0DDE90112891ACF
:1040700008E0DDE90112514304E0029999B1019A87
:1040800092FBF1F1C160C368194A1BA103A8FCF7B8
:104090000BF9FFF7E1FC00210C2303AA0846FFF708
:1040A00053FD0CB070BDFFF7D7FC00210C2314A208
:1040B0000846FFF749FD134D00244FF4FA7601221C
:1040C00011462846FEF7D6FA3046FEF755F900228B
:1040D00001212846FEF7CEFA3046FEF74DF9641C62
:1040E000032CECDBDDE7000025642563256400007C
:1040F000440000202000002025733D2564000000BE
:1041000045525200000C01400249002009684862F3
:1041100070470000AC00002010B5FFF7F5FFBDE8C8
:1041200010400148FEF7CABFAC00002010B503489C
:10413000FEF7ECFFBDE81040FFF7E6BFAC00002043
:1041400010B5FFF789FC0C230021BDE81040024A9E
:104150000846FFF7F9BC0000440000200148006851
:10416000406A7047AC000020FEF722FCFFF730FDEC
:10417000FFF7B4FBFFF7FEFBFFF750FCFFF71AFC5D
:10418000FFF784FCFFF768FC084D002605F11004DA
:10419000A8780128FCD1A278217805A0FFF7E6FED7
:1041A000207800F013F8AE70F2E700002000002045
:1041B00020616464726573733A2532782C20636FD2
:1041C0006D6D616E643A2532780D0A0070B5324922
:1041D000324CE32834D014DC4FF00005B92850D01D
:1041E00008DCA12828D0A5282CD0AD282ED0B528B1
:1041F0004DD12DE0BA283BD0BB2835D0BD2846D1C3
:1042000022E0F2282ED008DCE62829D0E7280DD0BD
:10421000E9281FD0EA283AD11EE0F32804D0F62876
:104220001CD0F72833D109E0312200E03222E078B7
:104230000A54401CE0702AE03322F8E73422F6E703
:104240003522F4E73622F2E73722F0E73822EEE7AC
:104250003922ECE73022EAE72D22E8E72B22E6E7D5
:104260002A22E4E72F22E2E7FFF7E0FEE57070BDC7
:1042700014210948FCF7ABFAE570BDE87040FFF780
:10428000EBBBE07818B1401EC0B2E0700D54BDE841
:104290007040FFF755BF00004400002020000020C0
:1042A00010B500290AD00878002807D005487844BE
:1042B000FDF7DCFB002801D0002010BD0248784447
:1042C00010BD0000B2090000AA09000010B50029C5
:1042D0000AD00878002807D005487844FDF7C6FBC7
:1042E000002801D0002010BD0248784410BD000015
:1042F000A20900009A090000FCF721BEFCF756BF96
:104300000000000000000000002F00000000070077
:10431000070000147F147F1400242A7F2A120062F1
:10432000640813230036495522500000050300009D
:1043300000001C224100000041221C000014083E25
:1043400008140008083E0808000000A060000008EB
:10435000080808080000606000000020100804023F
:10436000003E5149453E0000427F400000426151FD
:104370004946002141454B31001814127F10002797
:1043800045454539003C4A4949300001710905035A
:1043900000364949493600064949291E000036368B
:1043A00000000000563600000008142241000014EE
:1043B00014141414000041221408000201510906CB
:1043C00000324959513E007C1211127C007F49494C
:1043D0004936003E41414122007F4141221C007F7D
:1043E00049494941007F09090901003E4149497A8B
:1043F000007F0808087F0000417F41000020404105
:104400003F01007F08142241007F40404040007F70
:10441000020C027F007F0408107F003E4141413EB4
:10442000007F09090906003E4151215E007F0919FC
:1044300029460046494949310001017F0101003FF9
:104440004040403F001F2040201F003F4038403F79
:1044500000631408146300070870080700615149DD
:10446000454300007F41410000552A552A55000070
:1044700041417F00000402010204004040404040EE
:10448000000001020400002054545478007F484486
:10449000443800384444442000384444487F0038BD
:1044A0005454541800087E0901020018A4A4A47CE6
:1044B000007F080404780000447D400000408084B0
:1044C0007D00007F102844000000417F4000007CF8
:1044D00004180478007C0804047800384444443804
:1044E00000FC242424180018242418FC007C080450
:1044F000040800485454542000043F444020003C29
:104500004040207C001C2040201C003C4030403CAF
:10451000004428102844001CA0A0A07C004464543F
:104520004C44141414141414000000000000000083
:104530000000000000000000000000F80000000083
:10454000000000333000000000100C06100C0600C4
:10455000000000000000000040C07840C07840002B
:10456000043F04043F040400007088FC083000008D
:10457000001820FF211E0000F008F000E0180000E5
:1045800000211C031E211E0000F00888700000009E
:104590001E2123241927211010160E0000000000F0
:1045A0000000000000000000000000E0180402000D
:1045B000000000071820400000020418E00000007E
:1045C0000040201807000000404080F0804040007C
:1045D0000202010F01020200000000F000000000D2
:1045E0000101011F010101000000000000000000A6
:1045F00080B070000000000000000000000000001B
:1046000000010101010101010000000000000000A3
:10461000003030000000000000000000806018043E
:10462000006018060100000000E010080810E0001B
:10463000000F102020100F00001010F800000000E4
:104640000020203F2020000000700808088870002B
:1046500000302824222130000030088888483000AB
:104660000018202020110E000000C02010F80000CB
:1046700000070424243F240000F808888808080064
:104680000019212020110E0000E010888818000079
:10469000000F112020110E0000380808C83808004B
:1046A0000000003F000000000070880808887000CB
:1046B000001C222121221C0000E010080810E0004C
:1046C0000000312222110F00000000C0C0000000D5
:1046D00000000030300000000000008000000000FA
:1046E00000008060000000000000804020100800F2
:1046F00000010204081020004040404040404000BB
:104700000404040404040400000810204080000095
:104710000020100804020100007048080808F0009A
:104720000000003036010000C030C828E810E0006A
:104730000718272423140B000000C038E0000000F5
:10474000203C23020227382008F88888887000005F
:10475000203F202020110E00C03008080808380033
:10476000071820202010080008F808080810E000AA
:10477000203F202020100F0008F88888E80810004B
:10478000203F20202320180008F88888E80810001F
:10479000203F200003000000C03008080838000057
:1047A00007182020221E020008F808000008F80858
:1047B000203F210101213F20000808F808080000DF
:1047C0000020203F2020000000000808F808080012
:1047D000C08080807F00000008F888C0281808008A
:1047E000203F20012638200008F8080000000000C3
:1047F000203F20202020300008F8F800F8F80800BA
:10480000203F003F003F200008F830C00008F808B3
:10481000203F200007183F00E01008080810E000C3
:104820000F10202020100F0008F808080808F000DA
:10483000203F210101010000E01008080810E000FD
:104840000F18242438504F0008F888888888700092
:10485000203F2000030C3020007088080808380032
:104860000038202121221C00180808F80808180028
:104870000000203F2000000008F808000008F808A9
:10488000001F202020201F000878880000C838085A
:10489000000007380E010000F80800F80008F800D2
:1048A000033C0700073C030008186880806818086C
:1048B00020302C03032C30200838C800C8380800EA
:1048C0000000203F2000000010080808C838080039
:1048D0002038262120201800000000FE02020200DD
:1048E0000000007F40404000000C30C0000000008D
:1048F000000000010638C00000020202FE000000B5
:10490000004040407F00000000000402020204005A
:104910000000000000000000000000000000000097
:10492000808080808080808000020204000000007F
:104930000000000000000000000080808080000077
:104940000019242222223F2008F800808000000065
:10495000003F112020110E00000000808080000028
:10496000000E112020201100000000808088F80037
:10497000000E112020103F20000080808080000069
:10498000001F222222221300008080F088888818CD
:104990000020203F202000000000808080808000D8
:1049A000006B94949493600008F80080808000006D
:1049B000203F210000203F20008098980000000048
:1049C0000020203F20200000000000809898000078
:1049D00000C08080807F000008F800008080800098
:1049E000203F24022D302000000808F800000000BD
:1049F0000020203F20200000808080808080800078
:104A0000203F20003F20003F808000808080000009
:104A1000203F210000203F20000080808080000097
:104A2000001F202020201F008080008080000000C8
:104A300080FFA12020110E000000008080808000F7
:104A4000000E112020A0FF808080800080808000E8
:104A500020203F2120000100000080808080800015
:104A60000033242424241900008080E0808000008A
:104A70000000001F202000008080000000808000D7
:104A8000001F202020103F20808080000080808038
:104A900000010E30080601008080008000808080C8
:104AA0000F300C030C300F000080800080808000ED
:104AB0000020312E0E312000808080000080808018
:104AC00080818E70180601000080808080808000C8
:104AD0000021302C2221300000000000807C0202E6
:104AE00000000000003F404000000000FF00000008
:104AF00000000000FF0000000002027C80000000B7
:104B00000040403F000000000006010102020404D2
:104B10000000000000000000010202030405060777
:104B200008090A0B0C0D0E0F101000000000000009
:104B3000000001020304060708090000000001024A
:104B4000030404000008000000000000000200014F
:104B5000000010000000000000000000303132337F
:104B600034353637383941424344454640305800A1
:104B700030313233343536373839616263646566D3
:104B8000403078003031323334353637383961626D
:104B900063646566787000303132333435363738C7
:104BA000394142434445465850000000024000004D
:104BB000000000A00000000005400000000000C848
:104BC000000000000C4000000000409C00000000BD
:104BD000194000000020BCBE00000000344000006E
:104BE000BFC91B8E00000004B5400000504BCFD061
:104BF0006607E2CF010000006C4100003E8251AA2E
:104C0000DFEEA73401000000D9420000DCB5A0E2CD
:104C10003A301F97FFFFFFFFB4450000FD25A0C8F5
:104C2000E9A3C14FFFFFFFFFFF3F0000000000802E
:104C300000000000FF3F00000000008000000000B6
:104C40008C4D0008000000204400000028010008EE
:104C5000D04D000844000020DC070000440100089B
:104C60001C00000043000000F8FFFFFF0C000000E4
:104C70000E0000000F0000002E00000010010000D8
:104C800043000000F8FFFFFF00404040404040402C
:104C9000404041414141414040404040404040400F
:104CA00040404040404040404005020202020202B3
:104CB0000202020202020202022020202020202002
:104CC0002020200202020202020290909090909016
:104CD00010101010101010101010101010101010D4
:104CE0001010101002020202020288888888888848
:104CF0000808080808080808080808080808080834
:104D0000080808080202020240000000000000003B
:104D10000000000000000000000000000000000093
:104D20000000000000000000000000000000000083
:104D30000000000000000000000000000000000073
:104D40000000000000000000000000000000000063
:104D50000000000000000000000000000000000053
:104D60000000000000000000000000000000000043
:104D70000000000000000000000000000000000033
:104D80000000000000000000000000000000000023
:104D9000AE001040B081FFA1A6A83FC8D300D580C7
:104DA000D805D9F1DA12D8308D14AF000000000018
:104DB00000000000000000000000000000000000F3
:104DC00001000000100000000000000000127A0046
:04000005080000ED02
:00000001FF
